{
  "contractName": "ForwarderFactory",
  "abi": [
    {
      "inputs": [
        {
          "internalType": "address",
          "name": "_implementationAddress",
          "type": "address"
        }
      ],
      "stateMutability": "nonpayable",
      "type": "constructor"
    },
    {
      "anonymous": false,
      "inputs": [
        {
          "indexed": false,
          "internalType": "address",
          "name": "newForwarderAddress",
          "type": "address"
        },
        {
          "indexed": false,
          "internalType": "address",
          "name": "parentAddress",
          "type": "address"
        }
      ],
      "name": "ForwarderCreated",
      "type": "event"
    },
    {
      "inputs": [],
      "name": "implementationAddress",
      "outputs": [
        {
          "internalType": "address",
          "name": "",
          "type": "address"
        }
      ],
      "stateMutability": "view",
      "type": "function"
    },
    {
      "inputs": [
        {
          "internalType": "address",
          "name": "parent",
          "type": "address"
        },
        {
          "internalType": "bytes32",
          "name": "salt",
          "type": "bytes32"
        }
      ],
      "name": "createForwarder",
      "outputs": [],
      "stateMutability": "nonpayable",
      "type": "function"
    }
  ],
  "bytecode": "0x608060405234801561001057600080fd5b506040516103363803806103368339818101604052602081101561003357600080fd5b8101908080519060200190929190505050806000806101000a81548173ffffffffffffffffffffffffffffffffffffffff021916908373ffffffffffffffffffffffffffffffffffffffff160217905550506102a2806100946000396000f3fe608060405234801561001057600080fd5b50600436106100365760003560e01c8063b97a23191461003b578063fb90b3201461006f575b600080fd5b6100436100bd565b604051808273ffffffffffffffffffffffffffffffffffffffff16815260200191505060405180910390f35b6100bb6004803603604081101561008557600080fd5b81019080803573ffffffffffffffffffffffffffffffffffffffff169060200190929190803590602001909291905050506100e1565b005b60008054906101000a900473ffffffffffffffffffffffffffffffffffffffff1681565b600061010d60008054906101000a900473ffffffffffffffffffffffffffffffffffffffff1683610200565b90508073ffffffffffffffffffffffffffffffffffffffff166319ab453c846040518263ffffffff1660e01b8152600401808273ffffffffffffffffffffffffffffffffffffffff168152602001915050600060405180830381600087803b15801561017857600080fd5b505af115801561018c573d6000803e3d6000fd5b505050507fa35ea2cc726861482a50a162c72aad60965cc64641d419cd4d675036238b52048184604051808373ffffffffffffffffffffffffffffffffffffffff1681526020018273ffffffffffffffffffffffffffffffffffffffff1681526020019250505060405180910390a1505050565b6000808360601b90506040517f3d602d80600a3d3981f3363d3d373d3d3d363d7300000000000000000000000081528160148201527f5af43d82803e903d91602b57fd5bf300000000000000000000000000000000006028820152836037826000f5925050509291505056fea264697066735822122083b9925735706dfe60b07eb38933ee0a4499c964886554d19905679a3f5662cb64736f6c63430007000033",
  "immutableReferences": {},
  "source": "// SPDX-License-Identifier: Apache-2.0\npragma solidity ^0.7.0;\nimport \"./Forwarder.sol\";\nimport \"./CloneFactory.sol\";\n\ncontract ForwarderFactory is CloneFactory {\n\n  address public implementationAddress;\n\n  event ForwarderCreated(address newForwarderAddress, address parentAddress);\n\n  constructor(address _implementationAddress) {\n    implementationAddress = _implementationAddress;\n  }\n\n  function createForwarder(address parent, bytes32 salt) public {\n    address payable clone = createClone(implementationAddress, salt);\n    Forwarder(clone).init(parent);\n    emit ForwarderCreated(clone, parent);\n  }\n}\n",
  "sourcePath": "/home/toda/dev/eth-multisig-v3/contracts/ForwarderFactory.sol",
  "compiler": {
    "name": "solc",
    "version": "0.7.0+commit.9e61f92b.Emscripten.clang"
  },
  "schemaVersion": "3.2.3",
  "updatedAt": "2020-08-03T19:07:48.901Z",
  "devdoc": {
    "kind": "dev",
    "methods": {},
    "version": 1
  },
  "userdoc": {
    "kind": "user",
    "methods": {},
    "version": 1
  }
}