{
  "contractName": "Forwarder",
  "abi": [
    {
      "anonymous": false,
      "inputs": [
        {
          "indexed": false,
          "internalType": "address",
          "name": "from",
          "type": "address"
        },
        {
          "indexed": false,
          "internalType": "uint256",
          "name": "value",
          "type": "uint256"
        },
        {
          "indexed": false,
          "internalType": "bytes",
          "name": "data",
          "type": "bytes"
        }
      ],
      "name": "ForwarderDeposited",
      "type": "event"
    },
    {
      "stateMutability": "payable",
      "type": "fallback"
    },
    {
      "inputs": [],
      "name": "parentAddress",
      "outputs": [
        {
          "internalType": "address",
          "name": "",
          "type": "address"
        }
      ],
      "stateMutability": "view",
      "type": "function"
    },
    {
      "stateMutability": "payable",
      "type": "receive"
    },
    {
      "inputs": [
        {
          "internalType": "address",
          "name": "_parentAddress",
          "type": "address"
        }
      ],
      "name": "init",
      "outputs": [],
      "stateMutability": "nonpayable",
      "type": "function"
    },
    {
      "inputs": [
        {
          "internalType": "address",
          "name": "tokenContractAddress",
          "type": "address"
        }
      ],
      "name": "flushTokens",
      "outputs": [],
      "stateMutability": "nonpayable",
      "type": "function"
    },
    {
      "inputs": [],
      "name": "flush",
      "outputs": [],
      "stateMutability": "nonpayable",
      "type": "function"
    }
  ],
  "bytecode": "0x608060405234801561001057600080fd5b50610617806100206000396000f3fe6080604052600436106100425760003560e01c8062821de31461010b57806319ab453c1461014c5780633ef133671461019d5780636b9f96ea146101ee576100a9565b366100a9573073ffffffffffffffffffffffffffffffffffffffff16636b9f96ea6040518163ffffffff1660e01b8152600401600060405180830381600087803b15801561008f57600080fd5b505af11580156100a3573d6000803e3d6000fd5b50505050005b3073ffffffffffffffffffffffffffffffffffffffff16636b9f96ea6040518163ffffffff1660e01b8152600401600060405180830381600087803b1580156100f157600080fd5b505af1158015610105573d6000803e3d6000fd5b50505050005b34801561011757600080fd5b50610120610205565b604051808273ffffffffffffffffffffffffffffffffffffffff16815260200191505060405180910390f35b34801561015857600080fd5b5061019b6004803603602081101561016f57600080fd5b81019080803573ffffffffffffffffffffffffffffffffffffffff169060200190929190505050610229565b005b3480156101a957600080fd5b506101ec600480360360208110156101c057600080fd5b81019080803573ffffffffffffffffffffffffffffffffffffffff1690602001909291905050506102c5565b005b3480156101fa57600080fd5b506102036104ba565b005b60008054906101000a900473ffffffffffffffffffffffffffffffffffffffff1681565b600073ffffffffffffffffffffffffffffffffffffffff1660008054906101000a900473ffffffffffffffffffffffffffffffffffffffff1673ffffffffffffffffffffffffffffffffffffffff161461028257600080fd5b806000806101000a81548173ffffffffffffffffffffffffffffffffffffffff021916908373ffffffffffffffffffffffffffffffffffffffff16021790555050565b60008054906101000a900473ffffffffffffffffffffffffffffffffffffffff1673ffffffffffffffffffffffffffffffffffffffff163373ffffffffffffffffffffffffffffffffffffffff161461031d57600080fd5b6000819050600030905060008273ffffffffffffffffffffffffffffffffffffffff166370a08231836040518263ffffffff1660e01b8152600401808273ffffffffffffffffffffffffffffffffffffffff16815260200191505060206040518083038186803b15801561039057600080fd5b505afa1580156103a4573d6000803e3d6000fd5b505050506040513d60208110156103ba57600080fd5b8101908080519060200190929190505050905060008114156103de575050506104b7565b8273ffffffffffffffffffffffffffffffffffffffff1663a9059cbb60008054906101000a900473ffffffffffffffffffffffffffffffffffffffff16836040518363ffffffff1660e01b8152600401808373ffffffffffffffffffffffffffffffffffffffff16815260200182815260200192505050602060405180830381600087803b15801561046f57600080fd5b505af1158015610483573d6000803e3d6000fd5b505050506040513d602081101561049957600080fd5b81019080805190602001909291905050506104b357600080fd5b5050505b50565b600047905060008060009054906101000a900473ffffffffffffffffffffffffffffffffffffffff1673ffffffffffffffffffffffffffffffffffffffff168260405180600001905060006040518083038185875af1925050503d8060008114610540576040519150601f19603f3d011682016040523d82523d6000602084013e610545565b606091505b505090508061055357600080fd5b7f69b31548dea9b3b707b4dff357d326e3e9348b24e7a6080a218a6edeeec48f9b3383600036604051808573ffffffffffffffffffffffffffffffffffffffff168152602001848152602001806020018281038252848482818152602001925080828437600081840152601f19601f8201169050808301925050509550505050505060405180910390a1505056fea26469706673582212200101db08d4f479a76e2e8944aa3772c6955dbb3c56d6cddea7a43655d24319d164736f6c63430007000033",
  "immutableReferences": {},
  "source": "// SPDX-License-Identifier: Apache-2.0\npragma solidity ^0.7.0;\nimport \"./ERC20Interface.sol\";\n\n/**\n * Contract that will forward any incoming Ether to the creator of the contract\n * \n */\ncontract Forwarder {\n  // Address to which any funds sent to this contract will be forwarded\n  address public parentAddress;\n  event ForwarderDeposited(address from, uint value, bytes data);\n\n\n  /**\n   * Initialize the contract, and sets the destination address to that of the creator\n   */\n  function init(address _parentAddress) public onlyUninitialized {\n    parentAddress = _parentAddress;\n  }\n\n  /**\n   * Modifier that will execute internal code block only if the sender is the parent address\n   */\n  modifier onlyParent {\n    if (msg.sender != parentAddress) {\n      revert();\n    }\n    _;\n  }\n  \n    /**\n   * Modifier that will execute internal code block only if the contract has not been initialized yet\n   */\n  modifier onlyUninitialized {\n    if (parentAddress != address(0x0)) {\n      revert();\n    }\n    _;\n  }\n\n  /**\n   * Default function; Gets called when Ether is deposited, and forwards it to the parent address\n   */\n  fallback() external payable {\n      this.flush();\n  }\n  \n  /**\n   * Default function; Gets called when Ether is deposited, and forwards it to the parent address\n   */\n  receive() external payable {\n      this.flush();\n  }\n\n  /**\n   * Execute a token transfer of the full balance from the forwarder token to the parent address\n   * @param tokenContractAddress the address of the erc20 token contract\n   */\n  function flushTokens(address tokenContractAddress) public onlyParent {\n    ERC20Interface instance = ERC20Interface(tokenContractAddress);\n    address forwarderAddress = address(this);\n    uint256 forwarderBalance = instance.balanceOf(forwarderAddress);\n    if (forwarderBalance == 0) {\n      return;\n    }\n    if (!instance.transfer(parentAddress, forwarderBalance)) {\n      revert();\n    }\n  }\n\n  /**\n   * Flush the entire balance of the contract to the parent address.\n   */\n  function flush() public {\n    uint256 value = address(this).balance;\n    \n    (bool success,  ) = parentAddress.call{value: value}(\"\");\n    if (!success) {\n        revert();\n    }\n    emit ForwarderDeposited(msg.sender, value, msg.data);\n  }\n}\n",
  "sourcePath": "/home/toda/dev/eth-multisig-v3/contracts/Forwarder.sol",
  "compiler": {
    "name": "solc",
    "version": "0.7.0+commit.9e61f92b.Emscripten.clang"
  },
  "schemaVersion": "3.2.3",
  "updatedAt": "2020-08-03T19:07:48.897Z",
  "devdoc": {
    "kind": "dev",
    "methods": {
      "flushTokens(address)": {
        "params": {
          "tokenContractAddress": "the address of the erc20 token contract"
        }
      }
    },
    "version": 1
  },
  "userdoc": {
    "kind": "user",
    "methods": {
      "flush()": {
        "notice": "Flush the entire balance of the contract to the parent address."
      },
      "flushTokens(address)": {
        "notice": "Execute a token transfer of the full balance from the forwarder token to the parent address"
      },
      "init(address)": {
        "notice": "Initialize the contract, and sets the destination address to that of the creator"
      }
    },
    "notice": "Contract that will forward any incoming Ether to the creator of the contract ",
    "version": 1
  }
}