{
  "contractName": "WalletSimple",
  "abi": [
    {
      "anonymous": false,
      "inputs": [
        {
          "indexed": false,
          "internalType": "address",
          "name": "from",
          "type": "address"
        },
        {
          "indexed": false,
          "internalType": "uint256",
          "name": "value",
          "type": "uint256"
        },
        {
          "indexed": false,
          "internalType": "bytes",
          "name": "data",
          "type": "bytes"
        }
      ],
      "name": "Deposited",
      "type": "event"
    },
    {
      "anonymous": false,
      "inputs": [
        {
          "indexed": false,
          "internalType": "address",
          "name": "msgSender",
          "type": "address"
        }
      ],
      "name": "SafeModeActivated",
      "type": "event"
    },
    {
      "anonymous": false,
      "inputs": [
        {
          "indexed": false,
          "internalType": "address",
          "name": "msgSender",
          "type": "address"
        },
        {
          "indexed": false,
          "internalType": "address",
          "name": "otherSigner",
          "type": "address"
        },
        {
          "indexed": false,
          "internalType": "bytes32",
          "name": "operation",
          "type": "bytes32"
        },
        {
          "indexed": false,
          "internalType": "address",
          "name": "toAddress",
          "type": "address"
        },
        {
          "indexed": false,
          "internalType": "uint256",
          "name": "value",
          "type": "uint256"
        },
        {
          "indexed": false,
          "internalType": "bytes",
          "name": "data",
          "type": "bytes"
        }
      ],
      "name": "Transacted",
      "type": "event"
    },
    {
      "stateMutability": "payable",
      "type": "fallback"
    },
    {
      "inputs": [],
      "name": "safeMode",
      "outputs": [
        {
          "internalType": "bool",
          "name": "",
          "type": "bool"
        }
      ],
      "stateMutability": "view",
      "type": "function"
    },
    {
      "inputs": [
        {
          "internalType": "uint256",
          "name": "",
          "type": "uint256"
        }
      ],
      "name": "signers",
      "outputs": [
        {
          "internalType": "address",
          "name": "",
          "type": "address"
        }
      ],
      "stateMutability": "view",
      "type": "function"
    },
    {
      "stateMutability": "payable",
      "type": "receive"
    },
    {
      "inputs": [
        {
          "internalType": "address[]",
          "name": "allowedSigners",
          "type": "address[]"
        }
      ],
      "name": "init",
      "outputs": [],
      "stateMutability": "nonpayable",
      "type": "function"
    },
    {
      "inputs": [
        {
          "internalType": "address",
          "name": "signer",
          "type": "address"
        }
      ],
      "name": "isSigner",
      "outputs": [
        {
          "internalType": "bool",
          "name": "",
          "type": "bool"
        }
      ],
      "stateMutability": "view",
      "type": "function"
    },
    {
      "inputs": [
        {
          "internalType": "address",
          "name": "toAddress",
          "type": "address"
        },
        {
          "internalType": "uint256",
          "name": "value",
          "type": "uint256"
        },
        {
          "internalType": "bytes",
          "name": "data",
          "type": "bytes"
        },
        {
          "internalType": "uint256",
          "name": "expireTime",
          "type": "uint256"
        },
        {
          "internalType": "uint256",
          "name": "sequenceId",
          "type": "uint256"
        },
        {
          "internalType": "bytes",
          "name": "signature",
          "type": "bytes"
        }
      ],
      "name": "sendMultiSig",
      "outputs": [],
      "stateMutability": "nonpayable",
      "type": "function"
    },
    {
      "inputs": [
        {
          "internalType": "address",
          "name": "toAddress",
          "type": "address"
        },
        {
          "internalType": "uint256",
          "name": "value",
          "type": "uint256"
        },
        {
          "internalType": "address",
          "name": "tokenContractAddress",
          "type": "address"
        },
        {
          "internalType": "uint256",
          "name": "expireTime",
          "type": "uint256"
        },
        {
          "internalType": "uint256",
          "name": "sequenceId",
          "type": "uint256"
        },
        {
          "internalType": "bytes",
          "name": "signature",
          "type": "bytes"
        }
      ],
      "name": "sendMultiSigToken",
      "outputs": [],
      "stateMutability": "nonpayable",
      "type": "function"
    },
    {
      "inputs": [
        {
          "internalType": "address payable",
          "name": "forwarderAddress",
          "type": "address"
        },
        {
          "internalType": "address",
          "name": "tokenContractAddress",
          "type": "address"
        }
      ],
      "name": "flushForwarderTokens",
      "outputs": [],
      "stateMutability": "nonpayable",
      "type": "function"
    },
    {
      "inputs": [],
      "name": "activateSafeMode",
      "outputs": [],
      "stateMutability": "nonpayable",
      "type": "function"
    },
    {
      "inputs": [],
      "name": "getNextSequenceId",
      "outputs": [
        {
          "internalType": "uint256",
          "name": "",
          "type": "uint256"
        }
      ],
      "stateMutability": "view",
      "type": "function"
    }
  ],
  "bytecode": "0x60806040526000600160006101000a81548160ff02191690831515021790555034801561002b57600080fd5b50610f8b8061003b6000396000f3fe60806040526004361061008a5760003560e01c80637df73e27116100595780637df73e271461048e578063a0b7967b146104f5578063abe3219c14610520578063c6044c461461054d578063fc0f392d146105d357610125565b80630dcd7a6c146101bb5780632079fb9a1461029f5780632da0340914610304578063391252151461037557610125565b36610125576000341115610123577f6e89d517057028190560dd200cf6bf792842861353d1173761dfa362e1c133f03334600036604051808573ffffffffffffffffffffffffffffffffffffffff168152602001848152602001806020018281038252848482818152602001925080828437600081840152601f19601f8201169050808301925050509550505050505060405180910390a15b005b60003411156101b9577f6e89d517057028190560dd200cf6bf792842861353d1173761dfa362e1c133f03334600036604051808573ffffffffffffffffffffffffffffffffffffffff168152602001848152602001806020018281038252848482818152602001925080828437600081840152601f19601f8201169050808301925050509550505050505060405180910390a15b005b3480156101c757600080fd5b5061029d600480360360c08110156101de57600080fd5b81019080803573ffffffffffffffffffffffffffffffffffffffff16906020019092919080359060200190929190803573ffffffffffffffffffffffffffffffffffffffff16906020019092919080359060200190929190803590602001909291908035906020019064010000000081111561025957600080fd5b82018360208201111561026b57600080fd5b8035906020019184600183028401116401000000008311171561028d57600080fd5b90919293919293905050506105ea565b005b3480156102ab57600080fd5b506102d8600480360360208110156102c257600080fd5b8101908080359060200190929190505050610775565b604051808273ffffffffffffffffffffffffffffffffffffffff16815260200191505060405180910390f35b34801561031057600080fd5b506103736004803603604081101561032757600080fd5b81019080803573ffffffffffffffffffffffffffffffffffffffff169060200190929190803573ffffffffffffffffffffffffffffffffffffffff1690602001909291905050506107b1565b005b34801561038157600080fd5b5061048c600480360360c081101561039857600080fd5b81019080803573ffffffffffffffffffffffffffffffffffffffff16906020019092919080359060200190929190803590602001906401000000008111156103df57600080fd5b8201836020820111156103f157600080fd5b8035906020019184600183028401116401000000008311171561041357600080fd5b909192939192939080359060200190929190803590602001909291908035906020019064010000000081111561044857600080fd5b82018360208201111561045a57600080fd5b8035906020019184600183028401116401000000008311171561047c57600080fd5b909192939192939050505061084e565b005b34801561049a57600080fd5b506104dd600480360360208110156104b157600080fd5b81019080803573ffffffffffffffffffffffffffffffffffffffff169060200190929190505050610a62565b60405180821515815260200191505060405180910390f35b34801561050157600080fd5b5061050a610b04565b6040518082815260200191505060405180910390f35b34801561052c57600080fd5b50610535610b57565b60405180821515815260200191505060405180910390f35b34801561055957600080fd5b506105d16004803603602081101561057057600080fd5b810190808035906020019064010000000081111561058d57600080fd5b82018360208201111561059f57600080fd5b803590602001918460208302840111640100000000831117156105c157600080fd5b9091929391929390505050610b6a565b005b3480156105df57600080fd5b506105e8610ba1565b005b6105f333610a62565b6105fc57600080fd5b6000878787878760405160200180807f45524332300000000000000000000000000000000000000000000000000000008152506005018673ffffffffffffffffffffffffffffffffffffffff1660601b81526014018581526020018473ffffffffffffffffffffffffffffffffffffffff1660601b8152601401838152602001828152602001955050505050506040516020818303038152906040528051906020012090506106af888285858989610c1c565b5060008690508073ffffffffffffffffffffffffffffffffffffffff1663a9059cbb8a8a6040518363ffffffff1660e01b8152600401808373ffffffffffffffffffffffffffffffffffffffff16815260200182815260200192505050602060405180830381600087803b15801561072657600080fd5b505af115801561073a573d6000803e3d6000fd5b505050506040513d602081101561075057600080fd5b810190808051906020019092919050505061076a57600080fd5b505050505050505050565b6000818154811061078257fe5b906000526020600020016000915054906101000a900473ffffffffffffffffffffffffffffffffffffffff1681565b6107ba33610a62565b6107c357600080fd5b60008290508073ffffffffffffffffffffffffffffffffffffffff16633ef13367836040518263ffffffff1660e01b8152600401808273ffffffffffffffffffffffffffffffffffffffff168152602001915050600060405180830381600087803b15801561083157600080fd5b505af1158015610845573d6000803e3d6000fd5b50505050505050565b61085733610a62565b61086057600080fd5b600088888888888860405160200180807f45544845520000000000000000000000000000000000000000000000000000008152506005018773ffffffffffffffffffffffffffffffffffffffff1660601b815260140186815260200185858082843780830192505050838152602001828152602001965050505050505060405160208183030381529060405280519060200120905060006109058a8386868a8a610c1c565b905060008a73ffffffffffffffffffffffffffffffffffffffff168a8a8a60405180838380828437808301925050509250505060006040518083038185875af1925050503d8060008114610975576040519150601f19603f3d011682016040523d82523d6000602084013e61097a565b606091505b505090508061098857600080fd5b7f59bed9ab5d78073465dd642a9e3e76dfdb7d53bcae9d09df7d0b8f5234d5a8063383858e8e8e8e604051808873ffffffffffffffffffffffffffffffffffffffff1681526020018773ffffffffffffffffffffffffffffffffffffffff1681526020018681526020018573ffffffffffffffffffffffffffffffffffffffff168152602001848152602001806020018281038252848482818152602001925080828437600081840152601f19601f8201169050808301925050509850505050505050505060405180910390a15050505050505050505050565b600080600090505b600080549050811015610af9578273ffffffffffffffffffffffffffffffffffffffff1660008281548110610a9b57fe5b9060005260206000200160009054906101000a900473ffffffffffffffffffffffffffffffffffffffff1673ffffffffffffffffffffffffffffffffffffffff161415610aec576001915050610aff565b8080600101915050610a6a565b50600090505b919050565b6000806000905060005b600a811015610b4c5781600282600a8110610b2557fe5b01541115610b3f57600281600a8110610b3a57fe5b015491505b8080600101915050610b0e565b506001810191505090565b600160009054906101000a900460ff1681565b6000808054905014610b7b57600080fd5b60038282905014610b8b57600080fd5b818160009190610b9c929190610e7a565b505050565b610baa33610a62565b610bb357600080fd5b60018060006101000a81548160ff0219169083151502179055507f0909e8f76a4fd3e970f2eaef56c0ee6dfaf8b87c5b8d3f56ffce78e825a9115733604051808273ffffffffffffffffffffffffffffffffffffffff16815260200191505060405180910390a1565b600080610c6d8787878080601f016020809104026020016040519081016040528093929190818152602001838380828437600081840152601f19601f82011690508083019250505050505050610d0a565b9050600160009054906101000a900460ff168015610c915750610c8f88610a62565b155b15610c9b57600080fd5b42841015610ca857600080fd5b610cb183610db9565b610cba81610a62565b610cc357600080fd5b3373ffffffffffffffffffffffffffffffffffffffff168173ffffffffffffffffffffffffffffffffffffffff161415610cfc57600080fd5b809150509695505050505050565b60006041825114610d1a57600080fd5b6000806000602085015192506040850151915060ff6041860151169050601b8160ff161015610d4a57601b810190505b60018682858560405160008152602001604052604051808581526020018460ff1681526020018381526020018281526020019450505050506020604051602081039080840390855afa158015610da4573d6000803e3d6000fd5b50505060206040510351935050505092915050565b610dc233610a62565b610dcb57600080fd5b6000805b600a811015610e285782600282600a8110610de657fe5b01541415610df357600080fd5b600282600a8110610e0057fe5b0154600282600a8110610e0f57fe5b01541015610e1b578091505b8080600101915050610dcf565b50600281600a8110610e3657fe5b0154821015610e4457600080fd5b612710600282600a8110610e5457fe5b015401821115610e6357600080fd5b81600282600a8110610e7157fe5b01819055505050565b828054828255906000526020600020908101928215610f09579160200282015b82811115610f0857823573ffffffffffffffffffffffffffffffffffffffff168260006101000a81548173ffffffffffffffffffffffffffffffffffffffff021916908373ffffffffffffffffffffffffffffffffffffffff16021790555091602001919060010190610e9a565b5b509050610f169190610f1a565b5090565b5b80821115610f5157600081816101000a81549073ffffffffffffffffffffffffffffffffffffffff021916905550600101610f1b565b509056fea26469706673582212208882a61c415e15178b3064e2c31af89c7549dd61fbd4aa1791f68957352d23ee64736f6c63430007000033",
  "immutableReferences": {},
  "source": "// SPDX-License-Identifier: Apache-2.0\npragma solidity ^0.7.0;\nimport \"./Forwarder.sol\";\nimport \"./ERC20Interface.sol\";\n\n/**\n *\n * WalletSimple\n * ============\n *\n * Basic multi-signer wallet designed for use in a co-signing environment where 2 signatures are required to move funds.\n * Typically used in a 2-of-3 signing configuration. Uses ecrecover to allow for 2 signatures in a single transaction.\n *\n * The first signature is created on the operation hash (see Data Formats) and passed to sendMultiSig/sendMultiSigToken\n * The signer is determined by verifyMultiSig().\n *\n * The second signature is created by the submitter of the transaction and determined by msg.signer.\n *\n * Data Formats\n * ============\n *\n * The signature is created with ethereumjs-util.ecsign(operationHash).\n * Like the eth_sign RPC call, it packs the values as a 65-byte array of [r, s, v].\n * Unlike eth_sign, the message is not prefixed.\n *\n * The operationHash the result of keccak256(prefix, toAddress, value, data, expireTime).\n * For ether transactions, `prefix` is \"ETHER\".\n * For token transaction, `prefix` is \"ERC20\" and `data` is the tokenContractAddress.\n *\n *\n */\ncontract WalletSimple {\n  // Events\n  event Deposited(address from, uint value, bytes data);\n  event SafeModeActivated(address msgSender);\n  event Transacted(\n    address msgSender, // Address of the sender of the message initiating the transaction\n    address otherSigner, // Address of the signer (second signature) used to initiate the transaction\n    bytes32 operation, // Operation hash (see Data Formats)\n    address toAddress, // The address the transaction was sent to\n    uint value, // Amount of Wei sent to the address\n    bytes data // Data sent when invoking the transaction\n  );\n\n  // Public fields\n  address[] public signers; // The addresses that can co-sign transactions on the wallet\n  bool public safeMode = false; // When active, wallet may only send to signer addresses\n\n  // Internal fields\n  uint constant SEQUENCE_ID_WINDOW_SIZE = 10;\n  uint[10] recentSequenceIds;\n\n  /**\n   * Set up a simple multi-sig wallet by specifying the signers allowed to be used on this wallet.\n   * 2 signers will be required to send a transaction from this wallet.\n   * Note: The sender is NOT automatically added to the list of signers.\n   * Signers CANNOT be changed once they are set\n   *\n   * @param allowedSigners An array of signers on the wallet\n   */\n  function init(address[] calldata allowedSigners) public onlyUninitialized {\n    if (allowedSigners.length != 3) {\n      // Invalid number of signers\n      revert();\n    }\n    signers = allowedSigners;\n  }\n\n  /**\n   * Determine if an address is a signer on this wallet\n   * @param signer address to check\n   * returns boolean indicating whether address is signer or not\n   */\n  function isSigner(address signer) public view returns (bool) {\n    // Iterate through all signers on the wallet and\n    for (uint i = 0; i < signers.length; i++) {\n      if (signers[i] == signer) {\n        return true;\n      }\n    }\n    return false;\n  }\n\n  /**\n   * Modifier that will execute internal code block only if the sender is an authorized signer on this wallet\n   */\n  modifier onlySigner {\n    if (!isSigner(msg.sender)) {\n      revert();\n    }\n    _;\n  }\n  \n      /**\n   * Modifier that will execute internal code block only if the contract has not been initialized yet\n   */\n  modifier onlyUninitialized {\n    if (signers.length != 0) {\n      revert();\n    }\n    _;\n  }\n\n  /**\n   * Gets called when a transaction is received without calling a method\n   */\n  fallback() external payable {\n    if (msg.value > 0) {\n      // Fire deposited event if we are receiving funds\n      Deposited(msg.sender, msg.value, msg.data);\n    }\n  }\n  \n  /**\n   * Gets called when a transaction is received without calling a method\n   */\n  receive() external payable {\n    if (msg.value > 0) {\n      // Fire deposited event if we are receiving funds\n      Deposited(msg.sender, msg.value, msg.data);\n    }\n  }\n\n\n  /**\n   * Execute a multi-signature transaction from this wallet using 2 signers: one from msg.sender and the other from ecrecover.\n   * Sequence IDs are numbers starting from 1. They are used to prevent replay attacks and may not be repeated.\n   *\n   * @param toAddress the destination address to send an outgoing transaction\n   * @param value the amount in Wei to be sent\n   * @param data the data to send to the toAddress when invoking the transaction\n   * @param expireTime the number of seconds since 1970 for which this transaction is valid\n   * @param sequenceId the unique sequence id obtainable from getNextSequenceId\n   * @param signature see Data Formats\n   */\n  function sendMultiSig(\n      address toAddress,\n      uint value,\n      bytes calldata data,\n      uint expireTime,\n      uint sequenceId,\n      bytes calldata signature\n  ) external onlySigner {\n    // Verify the other signer\n    bytes32 operationHash = keccak256(abi.encodePacked(\"ETHER\", toAddress, value, data, expireTime, sequenceId));\n    \n    address otherSigner = verifyMultiSig(toAddress, operationHash, signature, expireTime, sequenceId);\n\n    // Success, send the transaction\n    (bool success,  ) = toAddress.call{value: value}(data);\n    if (!success) {\n      // Failed executing transaction\n        revert();\n    }\n    \n    Transacted(msg.sender, otherSigner, operationHash, toAddress, value, data);\n  }\n  \n  /**\n   * Execute a multi-signature token transfer from this wallet using 2 signers: one from msg.sender and the other from ecrecover.\n   * Sequence IDs are numbers starting from 1. They are used to prevent replay attacks and may not be repeated.\n   *\n   * @param toAddress the destination address to send an outgoing transaction\n   * @param value the amount in tokens to be sent\n   * @param tokenContractAddress the address of the erc20 token contract\n   * @param expireTime the number of seconds since 1970 for which this transaction is valid\n   * @param sequenceId the unique sequence id obtainable from getNextSequenceId\n   * @param signature see Data Formats\n   */\n  function sendMultiSigToken(\n      address toAddress,\n      uint value,\n      address tokenContractAddress,\n      uint expireTime,\n      uint sequenceId,\n      bytes calldata signature\n  ) external onlySigner {\n    // Verify the other signer\n    bytes32 operationHash = keccak256(abi.encodePacked(\"ERC20\", toAddress, value, tokenContractAddress, expireTime, sequenceId));\n    \n    verifyMultiSig(toAddress, operationHash, signature, expireTime, sequenceId);\n    \n    ERC20Interface instance = ERC20Interface(tokenContractAddress);\n    if (!instance.transfer(toAddress, value)) {\n        revert();\n    }\n  }\n  \n  /**\n   * Execute a token flush from one of the forwarder addresses. This transfer needs only a single signature and can be done by any signer\n   *\n   * @param forwarderAddress the address of the forwarder address to flush the tokens from\n   * @param tokenContractAddress the address of the erc20 token contract\n   */\n  function flushForwarderTokens(\n    address payable forwarderAddress, \n    address tokenContractAddress\n  ) public onlySigner {\n    Forwarder forwarder = Forwarder(forwarderAddress);\n    forwarder.flushTokens(tokenContractAddress);\n  }\n\n  /**\n   * Do common multisig verification for both eth sends and erc20token transfers\n   *\n   * @param toAddress the destination address to send an outgoing transaction\n   * @param operationHash see Data Formats\n   * @param signature see Data Formats\n   * @param expireTime the number of seconds since 1970 for which this transaction is valid\n   * @param sequenceId the unique sequence id obtainable from getNextSequenceId\n   * returns address that has created the signature\n   */\n  function verifyMultiSig(\n      address toAddress,\n      bytes32 operationHash,\n      bytes calldata signature,\n      uint expireTime,\n      uint sequenceId\n  ) private returns (address) {\n\n    address otherSigner = recoverAddressFromSignature(operationHash, signature);\n\n    // Verify if we are in safe mode. In safe mode, the wallet can only send to signers\n    if (safeMode && !isSigner(toAddress)) {\n      // We are in safe mode and the toAddress is not a signer. Disallow!\n      revert();\n    }\n    // Verify that the transaction has not expired\n    if (expireTime < block.timestamp) {\n      // Transaction expired\n      revert();\n    }\n\n    // Try to insert the sequence ID. Will revert if the sequence id was invalid\n    tryInsertSequenceId(sequenceId);\n\n    if (!isSigner(otherSigner)) {\n      // Other signer not on this wallet or operation does not match arguments\n      revert();\n    }\n    if (otherSigner == msg.sender) {\n      // Cannot approve own transaction\n      revert();\n    }\n\n    return otherSigner;\n  }\n\n  /**\n   * Irrevocably puts contract into safe mode. When in this mode, transactions may only be sent to signing addresses.\n   */\n  function activateSafeMode() public onlySigner {\n    safeMode = true;\n    SafeModeActivated(msg.sender);\n  }\n\n  /**\n   * Gets signer's address using ecrecover\n   * @param operationHash see Data Formats\n   * @param signature see Data Formats\n   * returns address recovered from the signature\n   */\n  function recoverAddressFromSignature(\n    bytes32 operationHash,\n    bytes memory signature\n  ) private pure returns (address) {\n    if (signature.length != 65) {\n      revert();\n    }\n    // We need to unpack the signature, which is given as an array of 65 bytes (like eth.sign)\n    bytes32 r;\n    bytes32 s;\n    uint8 v;\n    assembly {\n      r := mload(add(signature, 32))\n      s := mload(add(signature, 64))\n      v := and(mload(add(signature, 65)), 255)\n    }\n    if (v < 27) {\n      v += 27; // Ethereum versions are 27 or 28 as opposed to 0 or 1 which is submitted by some signing libs\n    }\n    return ecrecover(operationHash, v, r, s);\n  }\n\n  /**\n   * Verify that the sequence id has not been used before and inserts it. Throws if the sequence ID was not accepted.\n   * We collect a window of up to 10 recent sequence ids, and allow any sequence id that is not in the window and\n   * greater than the minimum element in the window.\n   * @param sequenceId to insert into array of stored ids\n   */\n  function tryInsertSequenceId(uint sequenceId) private onlySigner {\n    // Keep a pointer to the lowest value element in the window\n    uint lowestValueIndex = 0;\n    for (uint i = 0; i < SEQUENCE_ID_WINDOW_SIZE; i++) {\n      if (recentSequenceIds[i] == sequenceId) {\n        // This sequence ID has been used before. Disallow!\n        revert();\n      }\n      if (recentSequenceIds[i] < recentSequenceIds[lowestValueIndex]) {\n        lowestValueIndex = i;\n      }\n    }\n    if (sequenceId < recentSequenceIds[lowestValueIndex]) {\n      // The sequence ID being used is lower than the lowest value in the window\n      // so we cannot accept it as it may have been used before\n      revert();\n    }\n    if (sequenceId > (recentSequenceIds[lowestValueIndex] + 10000)) {\n      // Block sequence IDs which are much higher than the lowest value\n      // This prevents people blocking the contract by using very large sequence IDs quickly\n      revert();\n    }\n    recentSequenceIds[lowestValueIndex] = sequenceId;\n  }\n\n  /**\n   * Gets the next available sequence ID for signing when using executeAndConfirm\n   * returns the sequenceId one higher than the highest currently stored\n   */\n  function getNextSequenceId() public view returns (uint) {\n    uint highestSequenceId = 0;\n    for (uint i = 0; i < SEQUENCE_ID_WINDOW_SIZE; i++) {\n      if (recentSequenceIds[i] > highestSequenceId) {\n        highestSequenceId = recentSequenceIds[i];\n      }\n    }\n    return highestSequenceId + 1;\n  }\n}\n",
  "sourcePath": "/home/toda/dev/eth-multisig-v3/contracts/WalletSimple.sol",
  "compiler": {
    "name": "solc",
    "version": "0.7.0+commit.9e61f92b.Emscripten.clang"
  },
  "schemaVersion": "3.2.3",
  "updatedAt": "2020-08-03T19:07:48.915Z",
  "devdoc": {
    "kind": "dev",
    "methods": {
      "flushForwarderTokens(address,address)": {
        "params": {
          "forwarderAddress": "the address of the forwarder address to flush the tokens from",
          "tokenContractAddress": "the address of the erc20 token contract"
        }
      },
      "init(address[])": {
        "params": {
          "allowedSigners": "An array of signers on the wallet"
        }
      },
      "isSigner(address)": {
        "params": {
          "signer": "address to check returns boolean indicating whether address is signer or not"
        }
      },
      "sendMultiSig(address,uint256,bytes,uint256,uint256,bytes)": {
        "params": {
          "data": "the data to send to the toAddress when invoking the transaction",
          "expireTime": "the number of seconds since 1970 for which this transaction is valid",
          "sequenceId": "the unique sequence id obtainable from getNextSequenceId",
          "signature": "see Data Formats",
          "toAddress": "the destination address to send an outgoing transaction",
          "value": "the amount in Wei to be sent"
        }
      },
      "sendMultiSigToken(address,uint256,address,uint256,uint256,bytes)": {
        "params": {
          "expireTime": "the number of seconds since 1970 for which this transaction is valid",
          "sequenceId": "the unique sequence id obtainable from getNextSequenceId",
          "signature": "see Data Formats",
          "toAddress": "the destination address to send an outgoing transaction",
          "tokenContractAddress": "the address of the erc20 token contract",
          "value": "the amount in tokens to be sent"
        }
      }
    },
    "version": 1
  },
  "userdoc": {
    "kind": "user",
    "methods": {
      "activateSafeMode()": {
        "notice": "Irrevocably puts contract into safe mode. When in this mode, transactions may only be sent to signing addresses."
      },
      "flushForwarderTokens(address,address)": {
        "notice": "Execute a token flush from one of the forwarder addresses. This transfer needs only a single signature and can be done by any signer"
      },
      "getNextSequenceId()": {
        "notice": "Gets the next available sequence ID for signing when using executeAndConfirm returns the sequenceId one higher than the highest currently stored"
      },
      "init(address[])": {
        "notice": "Set up a simple multi-sig wallet by specifying the signers allowed to be used on this wallet. 2 signers will be required to send a transaction from this wallet. Note: The sender is NOT automatically added to the list of signers. Signers CANNOT be changed once they are set"
      },
      "isSigner(address)": {
        "notice": "Determine if an address is a signer on this wallet"
      },
      "sendMultiSig(address,uint256,bytes,uint256,uint256,bytes)": {
        "notice": "Execute a multi-signature transaction from this wallet using 2 signers: one from msg.sender and the other from ecrecover. Sequence IDs are numbers starting from 1. They are used to prevent replay attacks and may not be repeated."
      },
      "sendMultiSigToken(address,uint256,address,uint256,uint256,bytes)": {
        "notice": "Execute a multi-signature token transfer from this wallet using 2 signers: one from msg.sender and the other from ecrecover. Sequence IDs are numbers starting from 1. They are used to prevent replay attacks and may not be repeated."
      }
    },
    "notice": "WalletSimple ============ Basic multi-signer wallet designed for use in a co-signing environment where 2 signatures are required to move funds. Typically used in a 2-of-3 signing configuration. Uses ecrecover to allow for 2 signatures in a single transaction. The first signature is created on the operation hash (see Data Formats) and passed to sendMultiSig/sendMultiSigToken The signer is determined by verifyMultiSig(). The second signature is created by the submitter of the transaction and determined by msg.signer. Data Formats ============ The signature is created with ethereumjs-util.ecsign(operationHash). Like the eth_sign RPC call, it packs the values as a 65-byte array of [r, s, v]. Unlike eth_sign, the message is not prefixed. The operationHash the result of keccak256(prefix, toAddress, value, data, expireTime). For ether transactions, `prefix` is \"ETHER\". For token transaction, `prefix` is \"ERC20\" and `data` is the tokenContractAddress.",
    "version": 1
  }
}