{
  "contractName": "WalletFactory",
  "abi": [
    {
      "inputs": [
        {
          "internalType": "address",
          "name": "_implementationAddress",
          "type": "address"
        }
      ],
      "stateMutability": "nonpayable",
      "type": "constructor"
    },
    {
      "anonymous": false,
      "inputs": [
        {
          "indexed": false,
          "internalType": "address",
          "name": "newWalletAddress",
          "type": "address"
        }
      ],
      "name": "WalletCreated",
      "type": "event"
    },
    {
      "inputs": [],
      "name": "implementationAddress",
      "outputs": [
        {
          "internalType": "address",
          "name": "",
          "type": "address"
        }
      ],
      "stateMutability": "view",
      "type": "function"
    },
    {
      "inputs": [
        {
          "internalType": "address[]",
          "name": "allowedSigners",
          "type": "address[]"
        },
        {
          "internalType": "bytes32",
          "name": "salt",
          "type": "bytes32"
        }
      ],
      "name": "createWallet",
      "outputs": [],
      "stateMutability": "nonpayable",
      "type": "function"
    }
  ],
  "bytecode": "0x608060405234801561001057600080fd5b506040516103673803806103678339818101604052602081101561003357600080fd5b8101908080519060200190929190505050806000806101000a81548173ffffffffffffffffffffffffffffffffffffffff021916908373ffffffffffffffffffffffffffffffffffffffff160217905550506102d3806100946000396000f3fe608060405234801561001057600080fd5b50600436106100365760003560e01c80637117f3fa1461003b578063b97a2319146100be575b600080fd5b6100bc6004803603604081101561005157600080fd5b810190808035906020019064010000000081111561006e57600080fd5b82018360208201111561008057600080fd5b803590602001918460208302840111640100000000831117156100a257600080fd5b9091929391929390803590602001909291905050506100f2565b005b6100c661020d565b604051808273ffffffffffffffffffffffffffffffffffffffff16815260200191505060405180910390f35b600061011e60008054906101000a900473ffffffffffffffffffffffffffffffffffffffff1683610231565b90508073ffffffffffffffffffffffffffffffffffffffff1663c6044c4685856040518363ffffffff1660e01b815260040180806020018281038252848482818152602001925060200280828437600081840152601f19601f8201169050808301925050509350505050600060405180830381600087803b1580156101a257600080fd5b505af11580156101b6573d6000803e3d6000fd5b505050507f234cf33b32239d80b54161e2396c80cdeaf4d34161300e54d8bc01eb7c0ea55381604051808273ffffffffffffffffffffffffffffffffffffffff16815260200191505060405180910390a150505050565b60008054906101000a900473ffffffffffffffffffffffffffffffffffffffff1681565b6000808360601b90506040517f3d602d80600a3d3981f3363d3d373d3d3d363d7300000000000000000000000081528160148201527f5af43d82803e903d91602b57fd5bf300000000000000000000000000000000006028820152836037826000f5925050509291505056fea2646970667358221220e6e5e951947c0520a6f5dfed685ddca36da16edc6389c388b651f882f06e210764736f6c63430007000033",
  "immutableReferences": {},
  "source": "// SPDX-License-Identifier: Apache-2.0\npragma solidity ^0.7.0;\nimport \"./WalletSimple.sol\";\nimport \"./CloneFactory.sol\";\n\ncontract WalletFactory is CloneFactory {\n\n  address public implementationAddress;\n\n  event WalletCreated(address newWalletAddress);\n\n  constructor(address _implementationAddress) {\n    implementationAddress = _implementationAddress;\n  }\n\n  function createWallet(address[] calldata allowedSigners, bytes32 salt) public {\n    address payable clone = createClone(implementationAddress, salt);\n    WalletSimple(clone).init(allowedSigners);\n    emit WalletCreated(clone);\n  }\n}\n",
  "sourcePath": "/home/toda/dev/eth-multisig-v3/contracts/WalletFactory.sol",
  "compiler": {
    "name": "solc",
    "version": "0.7.0+commit.9e61f92b.Emscripten.clang"
  },
  "schemaVersion": "3.2.3",
  "updatedAt": "2020-08-03T19:07:48.903Z",
  "devdoc": {
    "kind": "dev",
    "methods": {},
    "version": 1
  },
  "userdoc": {
    "kind": "user",
    "methods": {},
    "version": 1
  }
}